{"abi":[{"type":"constructor","inputs":[],"stateMutability":"nonpayable"},{"type":"function","name":"addAdministrator","inputs":[{"name":"name","type":"string","internalType":"string"}],"outputs":[],"stateMutability":"nonpayable"},{"type":"function","name":"addGrant","inputs":[{"name":"name","type":"string","internalType":"string"},{"name":"description","type":"string","internalType":"string"},{"name":"deadline","type":"uint256","internalType":"uint256"},{"name":"amount","type":"uint256","internalType":"uint256"}],"outputs":[],"stateMutability":"nonpayable"},{"type":"function","name":"administrators","inputs":[{"name":"","type":"uint256","internalType":"uint256"}],"outputs":[{"name":"id","type":"uint256","internalType":"uint256"},{"name":"name","type":"string","internalType":"string"},{"name":"addr","type":"address","internalType":"address"}],"stateMutability":"view"},{"type":"function","name":"approveGrantApplication","inputs":[{"name":"id","type":"uint256","internalType":"uint256"},{"name":"amount","type":"uint256","internalType":"uint256"}],"outputs":[],"stateMutability":"nonpayable"},{"type":"function","name":"getApprovedGrantApplications","inputs":[],"outputs":[{"name":"","type":"tuple[]","internalType":"struct FundFusion.GrantApplication[]","components":[{"name":"grantId","type":"uint256","internalType":"uint256"},{"name":"id","type":"uint256","internalType":"uint256"},{"name":"projectTitle","type":"string","internalType":"string"},{"name":"description","type":"string","internalType":"string"},{"name":"problemStatement","type":"string","internalType":"string"},{"name":"demoVideoLink","type":"string","internalType":"string"},{"name":"liveLink","type":"string","internalType":"string"},{"name":"sourceCode","type":"string","internalType":"string"},{"name":"timestamp","type":"uint256","internalType":"uint256"},{"name":"ipfsHash","type":"string","internalType":"string"},{"name":"applicant","type":"address","internalType":"address"},{"name":"approved","type":"bool","internalType":"bool"}]}],"stateMutability":"view"},{"type":"function","name":"getGrant","inputs":[{"name":"id","type":"uint256","internalType":"uint256"}],"outputs":[{"name":"","type":"tuple","internalType":"struct FundFusion.Grant","components":[{"name":"id","type":"uint256","internalType":"uint256"},{"name":"name","type":"string","internalType":"string"},{"name":"description","type":"string","internalType":"string"},{"name":"deadline","type":"uint256","internalType":"uint256"},{"name":"amount","type":"uint256","internalType":"uint256"},{"name":"owner","type":"address","internalType":"address"}]}],"stateMutability":"view"},{"type":"function","name":"getGrantApplication","inputs":[{"name":"id","type":"uint256","internalType":"uint256"}],"outputs":[{"name":"","type":"tuple","internalType":"struct FundFusion.GrantApplication","components":[{"name":"grantId","type":"uint256","internalType":"uint256"},{"name":"id","type":"uint256","internalType":"uint256"},{"name":"projectTitle","type":"string","internalType":"string"},{"name":"description","type":"string","internalType":"string"},{"name":"problemStatement","type":"string","internalType":"string"},{"name":"demoVideoLink","type":"string","internalType":"string"},{"name":"liveLink","type":"string","internalType":"string"},{"name":"sourceCode","type":"string","internalType":"string"},{"name":"timestamp","type":"uint256","internalType":"uint256"},{"name":"ipfsHash","type":"string","internalType":"string"},{"name":"applicant","type":"address","internalType":"address"},{"name":"approved","type":"bool","internalType":"bool"}]}],"stateMutability":"view"},{"type":"function","name":"getGrantApplications","inputs":[],"outputs":[{"name":"","type":"tuple[]","internalType":"struct FundFusion.GrantApplication[]","components":[{"name":"grantId","type":"uint256","internalType":"uint256"},{"name":"id","type":"uint256","internalType":"uint256"},{"name":"projectTitle","type":"string","internalType":"string"},{"name":"description","type":"string","internalType":"string"},{"name":"problemStatement","type":"string","internalType":"string"},{"name":"demoVideoLink","type":"string","internalType":"string"},{"name":"liveLink","type":"string","internalType":"string"},{"name":"sourceCode","type":"string","internalType":"string"},{"name":"timestamp","type":"uint256","internalType":"uint256"},{"name":"ipfsHash","type":"string","internalType":"string"},{"name":"applicant","type":"address","internalType":"address"},{"name":"approved","type":"bool","internalType":"bool"}]}],"stateMutability":"view"},{"type":"function","name":"getGrants","inputs":[],"outputs":[{"name":"","type":"tuple[]","internalType":"struct FundFusion.Grant[]","components":[{"name":"id","type":"uint256","internalType":"uint256"},{"name":"name","type":"string","internalType":"string"},{"name":"description","type":"string","internalType":"string"},{"name":"deadline","type":"uint256","internalType":"uint256"},{"name":"amount","type":"uint256","internalType":"uint256"},{"name":"owner","type":"address","internalType":"address"}]}],"stateMutability":"view"},{"type":"function","name":"getPayment","inputs":[{"name":"id","type":"uint256","internalType":"uint256"}],"outputs":[{"name":"","type":"tuple","internalType":"struct FundFusion.Payment","components":[{"name":"id","type":"uint256","internalType":"uint256"},{"name":"applicationId","type":"uint256","internalType":"uint256"},{"name":"applicant","type":"address","internalType":"address"},{"name":"amount","type":"uint256","internalType":"uint256"},{"name":"timestamp","type":"uint256","internalType":"uint256"}]}],"stateMutability":"view"},{"type":"function","name":"getPayments","inputs":[],"outputs":[{"name":"","type":"tuple[]","internalType":"struct FundFusion.Payment[]","components":[{"name":"id","type":"uint256","internalType":"uint256"},{"name":"applicationId","type":"uint256","internalType":"uint256"},{"name":"applicant","type":"address","internalType":"address"},{"name":"amount","type":"uint256","internalType":"uint256"},{"name":"timestamp","type":"uint256","internalType":"uint256"}]}],"stateMutability":"view"},{"type":"function","name":"getTotalAmountPaid","inputs":[],"outputs":[{"name":"","type":"uint256","internalType":"uint256"}],"stateMutability":"view"},{"type":"function","name":"grantApplications","inputs":[{"name":"","type":"uint256","internalType":"uint256"}],"outputs":[{"name":"grantId","type":"uint256","internalType":"uint256"},{"name":"id","type":"uint256","internalType":"uint256"},{"name":"projectTitle","type":"string","internalType":"string"},{"name":"description","type":"string","internalType":"string"},{"name":"problemStatement","type":"string","internalType":"string"},{"name":"demoVideoLink","type":"string","internalType":"string"},{"name":"liveLink","type":"string","internalType":"string"},{"name":"sourceCode","type":"string","internalType":"string"},{"name":"timestamp","type":"uint256","internalType":"uint256"},{"name":"ipfsHash","type":"string","internalType":"string"},{"name":"applicant","type":"address","internalType":"address"},{"name":"approved","type":"bool","internalType":"bool"}],"stateMutability":"view"},{"type":"function","name":"grants","inputs":[{"name":"","type":"uint256","internalType":"uint256"}],"outputs":[{"name":"id","type":"uint256","internalType":"uint256"},{"name":"name","type":"string","internalType":"string"},{"name":"description","type":"string","internalType":"string"},{"name":"deadline","type":"uint256","internalType":"uint256"},{"name":"amount","type":"uint256","internalType":"uint256"},{"name":"owner","type":"address","internalType":"address"}],"stateMutability":"view"},{"type":"function","name":"isAdministrator","inputs":[{"name":"addr","type":"address","internalType":"address"}],"outputs":[{"name":"","type":"bool","internalType":"bool"}],"stateMutability":"view"},{"type":"function","name":"makeGrantApplication","inputs":[{"name":"grantId","type":"uint256","internalType":"uint256"},{"name":"projectTitle","type":"string","internalType":"string"},{"name":"description","type":"string","internalType":"string"},{"name":"problemStatement","type":"string","internalType":"string"},{"name":"demoVideoLink","type":"string","internalType":"string"},{"name":"liveLink","type":"string","internalType":"string"},{"name":"sourceCode","type":"string","internalType":"string"},{"name":"ipfsHash","type":"string","internalType":"string"}],"outputs":[],"stateMutability":"nonpayable"},{"type":"function","name":"owner","inputs":[],"outputs":[{"name":"","type":"address","internalType":"address"}],"stateMutability":"view"},{"type":"function","name":"payments","inputs":[{"name":"","type":"uint256","internalType":"uint256"}],"outputs":[{"name":"id","type":"uint256","internalType":"uint256"},{"name":"applicationId","type":"uint256","internalType":"uint256"},{"name":"applicant","type":"address","internalType":"address"},{"name":"amount","type":"uint256","internalType":"uint256"},{"name":"timestamp","type":"uint256","internalType":"uint256"}],"stateMutability":"view"},{"type":"function","name":"totalAdministrators","inputs":[],"outputs":[{"name":"","type":"uint256","internalType":"uint256"}],"stateMutability":"view"},{"type":"function","name":"totalAmountPaid","inputs":[],"outputs":[{"name":"","type":"uint256","internalType":"uint256"}],"stateMutability":"view"},{"type":"function","name":"totalApplications","inputs":[],"outputs":[{"name":"","type":"uint256","internalType":"uint256"}],"stateMutability":"view"},{"type":"function","name":"totalGrants","inputs":[],"outputs":[{"name":"","type":"uint256","internalType":"uint256"}],"stateMutability":"view"},{"type":"function","name":"totalPayments","inputs":[],"outputs":[{"name":"","type":"uint256","internalType":"uint256"}],"stateMutability":"view"},{"type":"event","name":"AdministratorAdded","inputs":[{"name":"id","type":"uint256","indexed":false,"internalType":"uint256"},{"name":"name","type":"string","indexed":false,"internalType":"string"},{"name":"addr","type":"address","indexed":false,"internalType":"address"}],"anonymous":false},{"type":"event","name":"GrantAdded","inputs":[{"name":"id","type":"uint256","indexed":false,"internalType":"uint256"},{"name":"name","type":"string","indexed":false,"internalType":"string"},{"name":"description","type":"string","indexed":false,"internalType":"string"},{"name":"deadline","type":"uint256","indexed":false,"internalType":"uint256"},{"name":"amount","type":"uint256","indexed":false,"internalType":"uint256"},{"name":"owner","type":"address","indexed":false,"internalType":"address"}],"anonymous":false},{"type":"event","name":"GrantApplicationAdded","inputs":[{"name":"id","type":"uint256","indexed":false,"internalType":"uint256"},{"name":"applicant","type":"address","indexed":false,"internalType":"address"}],"anonymous":false},{"type":"event","name":"GrantApplicationApproved","inputs":[{"name":"id","type":"uint256","indexed":false,"internalType":"uint256"},{"name":"amount","type":"uint256","indexed":false,"internalType":"uint256"}],"anonymous":false}],"bytecode":{"object":"0x6080604052348015600f57600080fd5b50600580546001600160a01b03191633179055612fc4806100316000396000f3fe608060405234801561001057600080fd5b506004361061014c5760003560e01c806387d81789116100c3578063ba5dbc9f1161007c578063ba5dbc9f14610310578063d56bd14214610323578063d89d151014610338578063d9211be81461035a578063ef07617c14610363578063f41cb5d11461038e57600080fd5b806387d81789146102585780638da5cb5b146102a1578063983a5faa146102cc578063a4e613ea146102df578063a7611356146102e7578063b8cc6c93146102f057600080fd5b80633280a836116101155780633280a836146101df5780633efdefd1146101ff5780633f57beb1146102075780634b1a1c9d1461021a5780634d70aa741461022357806386201ec71461024357600080fd5b80625b4487146101515780630a2eb3011461016d5780630b9dee13146101905780630c0debea146101a5578063158c75e5146101ca575b600080fd5b61015a60035481565b6040519081526020015b60405180910390f35b61018061017b3660046125f8565b610397565b6040519015158152602001610164565b6101a361019e3660046126cb565b6103fe565b005b6101b86101b33660046127f0565b61061d565b6040516101649695949392919061284f565b6101d2610780565b604051610164919061290d565b6101f26101ed3660046127f0565b61093a565b6040516101649190612971565b60045461015a565b6101a36102153660046129b1565b6109e2565b61015a60015481565b6102366102313660046127f0565b610af9565b6040516101649190612af8565b61024b610f77565b6040516101649190612b0b565b61026b6102663660046127f0565b61141a565b6040805195865260208601949094526001600160a01b03909216928401929092526060830191909152608082015260a001610164565b6005546102b4906001600160a01b031681565b6040516001600160a01b039091168152602001610164565b6101a36102da366004612b62565b611465565b61024b6116b7565b61015a60005481565b6103036102fe3660046127f0565b611c66565b6040516101649190612b84565b6101a361031e366004612b97565b611e30565b61032b612002565b6040516101649190612c0b565b61034b6103463660046127f0565b61208d565b60405161016493929190612c8a565b61015a60025481565b6103766103713660046127f0565b612154565b6040516101649c9b9a99989796959493929190612cbb565b61015a60045481565b6000805b6006548110156103f557826001600160a01b0316600682815481106103c2576103c2612d8e565b60009182526020909120600260039092020101546001600160a01b0316036103ed5750600192915050565b60010161039b565b50600092915050565b604080516101808101825289815260008054602083019081529282018a8152606083018a90526080830189905260a0830188905260c0830187905260e083018690524261010084015261012083018590523361014084015261016083018290526008805460018101825592528251600b9092027ff3f7a9fe364faab93b216da50a3214154f22a0a2b415b23a84c8169e8b636ee3810192835593517ff3f7a9fe364faab93b216da50a3214154f22a0a2b415b23a84c8169e8b636ee485015551919290917ff3f7a9fe364faab93b216da50a3214154f22a0a2b415b23a84c8169e8b636ee5909101906104f19082612e2f565b50606082015160038201906105069082612e2f565b506080820151600482019061051b9082612e2f565b5060a082015160058201906105309082612e2f565b5060c082015160068201906105459082612e2f565b5060e0820151600782019061055a9082612e2f565b506101008201516008820155610120820151600982019061057b9082612e2f565b50610140820151600a9091018054610160909301511515600160a01b026001600160a81b03199093166001600160a01b03909216919091179190911790556000805490806105c883612f05565b91905055507f8553e085ba4e4188d88e2ed0be5f1c63c69fef87d98f06754fb8107e9ec4b54e60016000546105fd9190612f1e565b604080519182523360208301520160405180910390a15050505050505050565b6007818154811061062d57600080fd5b6000918252602090912060069091020180546001820180549193509061065290612da4565b80601f016020809104026020016040519081016040528092919081815260200182805461067e90612da4565b80156106cb5780601f106106a0576101008083540402835291602001916106cb565b820191906000526020600020905b8154815290600101906020018083116106ae57829003601f168201915b5050505050908060020180546106e090612da4565b80601f016020809104026020016040519081016040528092919081815260200182805461070c90612da4565b80156107595780601f1061072e57610100808354040283529160200191610759565b820191906000526020600020905b81548152906001019060200180831161073c57829003601f168201915b5050505060038301546004840154600590940154929390929091506001600160a01b031686565b60606007805480602002602001604051908101604052809291908181526020016000905b8282101561093157838290600052602060002090600602016040518060c0016040529081600082015481526020016001820180546107e190612da4565b80601f016020809104026020016040519081016040528092919081815260200182805461080d90612da4565b801561085a5780601f1061082f5761010080835404028352916020019161085a565b820191906000526020600020905b81548152906001019060200180831161083d57829003601f168201915b5050505050815260200160028201805461087390612da4565b80601f016020809104026020016040519081016040528092919081815260200182805461089f90612da4565b80156108ec5780601f106108c1576101008083540402835291602001916108ec565b820191906000526020600020905b8154815290600101906020018083116108cf57829003601f168201915b50505091835250506003820154602080830191909152600483015460408301526005909201546001600160a01b031660609091015290825260019290920191016107a4565b50505050905090565b6109756040518060a00160405280600081526020016000815260200160006001600160a01b0316815260200160008152602001600081525090565b6009828154811061098857610988612d8e565b60009182526020918290206040805160a08101825260059093029091018054835260018101549383019390935260028301546001600160a01b03169082015260038201546060820152600490910154608082015292915050565b60408051606081018252600180548252602082018481523393830193909352600680549182018155600052815160039091027ff652222313e28459528d920b65115c16c04f3efc82aaedc97be59f3f377c0d3f81019182559251919290917ff652222313e28459528d920b65115c16c04f3efc82aaedc97be59f3f377c0d4090910190610a6f9082612e2f565b5060409190910151600290910180546001600160a01b0319166001600160a01b0390921691909117905560018054906000610aa983612f05565b91905055507fb4f40624ee456753da79352e083d5e20ab4310c01d192d222a0e4dea2395bbd060018054610add9190612f1e565b8233604051610aee93929190612c8a565b60405180910390a150565b610b0161258c565b60088281548110610b1457610b14612d8e565b90600052602060002090600b0201604051806101800160405290816000820154815260200160018201548152602001600282018054610b5290612da4565b80601f0160208091040260200160405190810160405280929190818152602001828054610b7e90612da4565b8015610bcb5780601f10610ba057610100808354040283529160200191610bcb565b820191906000526020600020905b815481529060010190602001808311610bae57829003601f168201915b50505050508152602001600382018054610be490612da4565b80601f0160208091040260200160405190810160405280929190818152602001828054610c1090612da4565b8015610c5d5780601f10610c3257610100808354040283529160200191610c5d565b820191906000526020600020905b815481529060010190602001808311610c4057829003601f168201915b50505050508152602001600482018054610c7690612da4565b80601f0160208091040260200160405190810160405280929190818152602001828054610ca290612da4565b8015610cef5780601f10610cc457610100808354040283529160200191610cef565b820191906000526020600020905b815481529060010190602001808311610cd257829003601f168201915b50505050508152602001600582018054610d0890612da4565b80601f0160208091040260200160405190810160405280929190818152602001828054610d3490612da4565b8015610d815780601f10610d5657610100808354040283529160200191610d81565b820191906000526020600020905b815481529060010190602001808311610d6457829003601f168201915b50505050508152602001600682018054610d9a90612da4565b80601f0160208091040260200160405190810160405280929190818152602001828054610dc690612da4565b8015610e135780601f10610de857610100808354040283529160200191610e13565b820191906000526020600020905b815481529060010190602001808311610df657829003601f168201915b50505050508152602001600782018054610e2c90612da4565b80601f0160208091040260200160405190810160405280929190818152602001828054610e5890612da4565b8015610ea55780601f10610e7a57610100808354040283529160200191610ea5565b820191906000526020600020905b815481529060010190602001808311610e8857829003601f168201915b5050505050815260200160088201548152602001600982018054610ec890612da4565b80601f0160208091040260200160405190810160405280929190818152602001828054610ef490612da4565b8015610f415780601f10610f1657610100808354040283529160200191610f41565b820191906000526020600020905b815481529060010190602001808311610f2457829003601f168201915b5050509183525050600a91909101546001600160a01b0381166020830152600160a01b900460ff16151560409091015292915050565b60606008805480602002602001604051908101604052809291908181526020016000905b8282101561093157838290600052602060002090600b0201604051806101800160405290816000820154815260200160018201548152602001600282018054610fe390612da4565b80601f016020809104026020016040519081016040528092919081815260200182805461100f90612da4565b801561105c5780601f106110315761010080835404028352916020019161105c565b820191906000526020600020905b81548152906001019060200180831161103f57829003601f168201915b5050505050815260200160038201805461107590612da4565b80601f01602080910402602001604051908101604052809291908181526020018280546110a190612da4565b80156110ee5780601f106110c3576101008083540402835291602001916110ee565b820191906000526020600020905b8154815290600101906020018083116110d157829003601f168201915b5050505050815260200160048201805461110790612da4565b80601f016020809104026020016040519081016040528092919081815260200182805461113390612da4565b80156111805780601f1061115557610100808354040283529160200191611180565b820191906000526020600020905b81548152906001019060200180831161116357829003601f168201915b5050505050815260200160058201805461119990612da4565b80601f01602080910402602001604051908101604052809291908181526020018280546111c590612da4565b80156112125780601f106111e757610100808354040283529160200191611212565b820191906000526020600020905b8154815290600101906020018083116111f557829003601f168201915b5050505050815260200160068201805461122b90612da4565b80601f016020809104026020016040519081016040528092919081815260200182805461125790612da4565b80156112a45780601f10611279576101008083540402835291602001916112a4565b820191906000526020600020905b81548152906001019060200180831161128757829003601f168201915b505050505081526020016007820180546112bd90612da4565b80601f01602080910402602001604051908101604052809291908181526020018280546112e990612da4565b80156113365780601f1061130b57610100808354040283529160200191611336565b820191906000526020600020905b81548152906001019060200180831161131957829003601f168201915b505050505081526020016008820154815260200160098201805461135990612da4565b80601f016020809104026020016040519081016040528092919081815260200182805461138590612da4565b80156113d25780601f106113a7576101008083540402835291602001916113d2565b820191906000526020600020905b8154815290600101906020018083116113b557829003601f168201915b5050509183525050600a91909101546001600160a01b038116602080840191909152600160a01b90910460ff1615156040909201919091529082526001929092019101610f9b565b6009818154811061142a57600080fd5b60009182526020909120600590910201805460018201546002830154600384015460049094015492945090926001600160a01b039091169185565b61146e33610397565b6114935760405162461bcd60e51b815260040161148a90612f31565b60405180910390fd5b60005482106114dd5760405162461bcd60e51b8152602060048201526016602482015275125b9d985b1a5908185c1c1b1a58d85d1a5bdb88125160521b604482015260640161148a565b600882815481106114f0576114f0612d8e565b60009182526020909120600b90910201600a0154600160a01b900460ff161561155b5760405162461bcd60e51b815260206004820152601c60248201527f4170706c69636174696f6e20616c726561647920617070726f76656400000000604482015260640161148a565b60016008838154811061157057611570612d8e565b90600052602060002090600b0201600a0160146101000a81548160ff02191690831515021790555060096040518060a001604052806003548152602001848152602001600885815481106115c6576115c6612d8e565b60009182526020808320600b92909202909101600a01546001600160a01b0390811684528382018790524260409485015285546001808201885596845282842086516005909202019081559185015195820195909555918301516002830180546001600160a01b0319169190951617909355606082015160038083019190915560809092015160049091015580549161165e83612f05565b919050555080600460008282546116759190612f7b565b909155505060408051838152602081018390527f85087f26b82004ad768f47412000ef2377c189f9938d540d87670d1901fa5b86910160405180910390a15050565b60606000805b60085481101561171757600881815481106116da576116da612d8e565b60009182526020909120600b90910201600a0154600160a01b900460ff16151560010361170f578161170b81612f05565b9250505b6001016116bd565b5060008167ffffffffffffffff81111561173357611733612628565b60405190808252806020026020018201604052801561176c57816020015b61175961258c565b8152602001906001900390816117515790505b5090506000805b600854811015611c5d576008818154811061179057611790612d8e565b60009182526020909120600b90910201600a0154600160a01b900460ff161515600103611c5557600881815481106117ca576117ca612d8e565b90600052602060002090600b020160405180610180016040529081600082015481526020016001820154815260200160028201805461180890612da4565b80601f016020809104026020016040519081016040528092919081815260200182805461183490612da4565b80156118815780601f1061185657610100808354040283529160200191611881565b820191906000526020600020905b81548152906001019060200180831161186457829003601f168201915b5050505050815260200160038201805461189a90612da4565b80601f01602080910402602001604051908101604052809291908181526020018280546118c690612da4565b80156119135780601f106118e857610100808354040283529160200191611913565b820191906000526020600020905b8154815290600101906020018083116118f657829003601f168201915b5050505050815260200160048201805461192c90612da4565b80601f016020809104026020016040519081016040528092919081815260200182805461195890612da4565b80156119a55780601f1061197a576101008083540402835291602001916119a5565b820191906000526020600020905b81548152906001019060200180831161198857829003601f168201915b505050505081526020016005820180546119be90612da4565b80601f01602080910402602001604051908101604052809291908181526020018280546119ea90612da4565b8015611a375780601f10611a0c57610100808354040283529160200191611a37565b820191906000526020600020905b815481529060010190602001808311611a1a57829003601f168201915b50505050508152602001600682018054611a5090612da4565b80601f0160208091040260200160405190810160405280929190818152602001828054611a7c90612da4565b8015611ac95780601f10611a9e57610100808354040283529160200191611ac9565b820191906000526020600020905b815481529060010190602001808311611aac57829003601f168201915b50505050508152602001600782018054611ae290612da4565b80601f0160208091040260200160405190810160405280929190818152602001828054611b0e90612da4565b8015611b5b5780601f10611b3057610100808354040283529160200191611b5b565b820191906000526020600020905b815481529060010190602001808311611b3e57829003601f168201915b5050505050815260200160088201548152602001600982018054611b7e90612da4565b80601f0160208091040260200160405190810160405280929190818152602001828054611baa90612da4565b8015611bf75780601f10611bcc57610100808354040283529160200191611bf7565b820191906000526020600020905b815481529060010190602001808311611bda57829003601f168201915b5050509183525050600a91909101546001600160a01b0381166020830152600160a01b900460ff1615156040909101528351849084908110611c3b57611c3b612d8e565b60200260200101819052508180611c5190612f05565b9250505b600101611773565b50909392505050565b611ca86040518060c00160405280600081526020016060815260200160608152602001600081526020016000815260200160006001600160a01b031681525090565b60078281548110611cbb57611cbb612d8e565b90600052602060002090600602016040518060c001604052908160008201548152602001600182018054611cee90612da4565b80601f0160208091040260200160405190810160405280929190818152602001828054611d1a90612da4565b8015611d675780601f10611d3c57610100808354040283529160200191611d67565b820191906000526020600020905b815481529060010190602001808311611d4a57829003601f168201915b50505050508152602001600282018054611d8090612da4565b80601f0160208091040260200160405190810160405280929190818152602001828054611dac90612da4565b8015611df95780601f10611dce57610100808354040283529160200191611df9565b820191906000526020600020905b815481529060010190602001808311611ddc57829003601f168201915b505050918352505060038201546020820152600482015460408201526005909101546001600160a01b031660609091015292915050565b611e3933610397565b611e555760405162461bcd60e51b815260040161148a90612f31565b428211611ea45760405162461bcd60e51b815260206004820152601e60248201527f446561646c696e65206d75737420626520696e20746865206675747572650000604482015260640161148a565b6040805160c08101825260025481526020810186815291810185905260608101849052608081018390523360a082015260078054600181018255600091909152815160069091027fa66cc928b5edb82af9bd49922954155ab7b0942694bea4ce44661d9a8736c68881019182559251919290917fa66cc928b5edb82af9bd49922954155ab7b0942694bea4ce44661d9a8736c68990910190611f469082612e2f565b5060408201516002820190611f5b9082612e2f565b50606082015160038201556080820151600482015560a090910151600590910180546001600160a01b0319166001600160a01b0390921691909117905560028054906000611fa883612f05565b91905055507ff52d0fdd3ed5ad3216801da77e5154ad1299c52fea32880e23319acfc09014e96001600254611fdd9190612f1e565b8585858533604051611ff49695949392919061284f565b60405180910390a150505050565b60606009805480602002602001604051908101604052809291908181526020016000905b828210156109315760008481526020908190206040805160a08101825260058602909201805483526001808201548486015260028201546001600160a01b031692840192909252600381015460608401526004015460808301529083529092019101612026565b6006818154811061209d57600080fd5b600091825260209091206003909102018054600182018054919350906120c290612da4565b80601f01602080910402602001604051908101604052809291908181526020018280546120ee90612da4565b801561213b5780601f106121105761010080835404028352916020019161213b565b820191906000526020600020905b81548152906001019060200180831161211e57829003601f168201915b505050600290930154919250506001600160a01b031683565b6008818154811061216457600080fd5b90600052602060002090600b020160009150905080600001549080600101549080600201805461219390612da4565b80601f01602080910402602001604051908101604052809291908181526020018280546121bf90612da4565b801561220c5780601f106121e15761010080835404028352916020019161220c565b820191906000526020600020905b8154815290600101906020018083116121ef57829003601f168201915b50505050509080600301805461222190612da4565b80601f016020809104026020016040519081016040528092919081815260200182805461224d90612da4565b801561229a5780601f1061226f5761010080835404028352916020019161229a565b820191906000526020600020905b81548152906001019060200180831161227d57829003601f168201915b5050505050908060040180546122af90612da4565b80601f01602080910402602001604051908101604052809291908181526020018280546122db90612da4565b80156123285780601f106122fd57610100808354040283529160200191612328565b820191906000526020600020905b81548152906001019060200180831161230b57829003601f168201915b50505050509080600501805461233d90612da4565b80601f016020809104026020016040519081016040528092919081815260200182805461236990612da4565b80156123b65780601f1061238b576101008083540402835291602001916123b6565b820191906000526020600020905b81548152906001019060200180831161239957829003601f168201915b5050505050908060060180546123cb90612da4565b80601f01602080910402602001604051908101604052809291908181526020018280546123f790612da4565b80156124445780601f1061241957610100808354040283529160200191612444565b820191906000526020600020905b81548152906001019060200180831161242757829003601f168201915b50505050509080600701805461245990612da4565b80601f016020809104026020016040519081016040528092919081815260200182805461248590612da4565b80156124d25780601f106124a7576101008083540402835291602001916124d2565b820191906000526020600020905b8154815290600101906020018083116124b557829003601f168201915b5050505050908060080154908060090180546124ed90612da4565b80601f016020809104026020016040519081016040528092919081815260200182805461251990612da4565b80156125665780601f1061253b57610100808354040283529160200191612566565b820191906000526020600020905b81548152906001019060200180831161254957829003601f168201915b505050600a90930154919250506001600160a01b0381169060ff600160a01b909104168c565b6040518061018001604052806000815260200160008152602001606081526020016060815260200160608152602001606081526020016060815260200160608152602001600081526020016060815260200160006001600160a01b031681526020016000151581525090565b60006020828403121561260a57600080fd5b81356001600160a01b038116811461262157600080fd5b9392505050565b634e487b7160e01b600052604160045260246000fd5b600082601f83011261264f57600080fd5b813567ffffffffffffffff8082111561266a5761266a612628565b604051601f8301601f19908116603f0116810190828211818310171561269257612692612628565b816040528381528660208588010111156126ab57600080fd5b836020870160208301376000602085830101528094505050505092915050565b600080600080600080600080610100898b0312156126e857600080fd5b88359750602089013567ffffffffffffffff8082111561270757600080fd5b6127138c838d0161263e565b985060408b013591508082111561272957600080fd5b6127358c838d0161263e565b975060608b013591508082111561274b57600080fd5b6127578c838d0161263e565b965060808b013591508082111561276d57600080fd5b6127798c838d0161263e565b955060a08b013591508082111561278f57600080fd5b61279b8c838d0161263e565b945060c08b01359150808211156127b157600080fd5b6127bd8c838d0161263e565b935060e08b01359150808211156127d357600080fd5b506127e08b828c0161263e565b9150509295985092959890939650565b60006020828403121561280257600080fd5b5035919050565b6000815180845260005b8181101561282f57602081850181015186830182015201612813565b506000602082860101526020601f19601f83011685010191505092915050565b86815260c06020820152600061286860c0830188612809565b828103604084015261287a8188612809565b6060840196909652505060808101929092526001600160a01b031660a0909101529392505050565b805182526000602082015160c060208501526128c160c0850182612809565b9050604083015184820360408601526128da8282612809565b606085810151908701526080808601519087015260a0948501516001600160a01b03169490950193909352509192915050565b600060208083016020845280855180835260408601915060408160051b87010192506020870160005b8281101561296457603f198886030184526129528583516128a2565b94509285019290850190600101612936565b5092979650505050505050565b81518152602080830151908201526040808301516001600160a01b031690820152606080830151908201526080808301519082015260a081015b92915050565b6000602082840312156129c357600080fd5b813567ffffffffffffffff8111156129da57600080fd5b6129e68482850161263e565b949350505050565b600061018082518452602083015160208501526040830151816040860152612a1882860182612809565b91505060608301518482036060860152612a328282612809565b91505060808301518482036080860152612a4c8282612809565b91505060a083015184820360a0860152612a668282612809565b91505060c083015184820360c0860152612a808282612809565b91505060e083015184820360e0860152612a9a8282612809565b9150506101008084015181860152506101208084015185830382870152612ac18382612809565b9250505061014080840151612ae0828701826001600160a01b03169052565b50506101609283015115159390920192909252919050565b60208152600061262160208301846129ee565b600060208083016020845280855180835260408601915060408160051b87010192506020870160005b8281101561296457603f19888603018452612b508583516129ee565b94509285019290850190600101612b34565b60008060408385031215612b7557600080fd5b50508035926020909101359150565b60208152600061262160208301846128a2565b60008060008060808587031215612bad57600080fd5b843567ffffffffffffffff80821115612bc557600080fd5b612bd18883890161263e565b95506020870135915080821115612be757600080fd5b50612bf48782880161263e565b949794965050505060408301359260600135919050565b6020808252825182820181905260009190848201906040850190845b81811015612c7e57612c6b83855180518252602080820151908301526040808201516001600160a01b03169083015260608082015190830152608090810151910152565b9284019260a09290920191600101612c27565b50909695505050505050565b838152606060208201526000612ca36060830185612809565b905060018060a01b0383166040830152949350505050565b60006101808e83528d6020840152806040840152612cdb8184018e612809565b90508281036060840152612cef818d612809565b90508281036080840152612d03818c612809565b905082810360a0840152612d17818b612809565b905082810360c0840152612d2b818a612809565b905082810360e0840152612d3f8189612809565b905086610100840152828103610120840152612d5b8187612809565b915050612d746101408301856001600160a01b03169052565b8215156101608301529d9c50505050505050505050505050565b634e487b7160e01b600052603260045260246000fd5b600181811c90821680612db857607f821691505b602082108103612dd857634e487b7160e01b600052602260045260246000fd5b50919050565b601f821115612e2a576000816000526020600020601f850160051c81016020861015612e075750805b601f850160051c820191505b81811015612e2657828155600101612e13565b5050505b505050565b815167ffffffffffffffff811115612e4957612e49612628565b612e5d81612e578454612da4565b84612dde565b602080601f831160018114612e925760008415612e7a5750858301515b600019600386901b1c1916600185901b178555612e26565b600085815260208120601f198616915b82811015612ec157888601518255948401946001909101908401612ea2565b5085821015612edf5787850151600019600388901b60f8161c191681555b5050505050600190811b01905550565b634e487b7160e01b600052601160045260246000fd5b600060018201612f1757612f17612eef565b5060010190565b818103818111156129ab576129ab612eef565b6020808252602a908201527f4f6e6c792061646d696e6973747261746f72732063616e2063616c6c207468696040820152693990333ab731ba34b7b760b11b606082015260800190565b808201808211156129ab576129ab612eef56fea264697066735822122030f9ec0f43ce86ad14d2182bd500e1f0b04d242e3ed5d7b135ff9b924cf9bf5764736f6c63430008190033","linkReferences":{}},"methodIdentifiers":{"addAdministrator(string)":"3f57beb1","addGrant(string,string,uint256,uint256)":"ba5dbc9f","administrators(uint256)":"d89d1510","approveGrantApplication(uint256,uint256)":"983a5faa","getApprovedGrantApplications()":"a4e613ea","getGrant(uint256)":"b8cc6c93","getGrantApplication(uint256)":"4d70aa74","getGrantApplications()":"86201ec7","getGrants()":"158c75e5","getPayment(uint256)":"3280a836","getPayments()":"d56bd142","getTotalAmountPaid()":"3efdefd1","grantApplications(uint256)":"ef07617c","grants(uint256)":"0c0debea","isAdministrator(address)":"0a2eb301","makeGrantApplication(uint256,string,string,string,string,string,string,string)":"0b9dee13","owner()":"8da5cb5b","payments(uint256)":"87d81789","totalAdministrators()":"4b1a1c9d","totalAmountPaid()":"f41cb5d1","totalApplications()":"a7611356","totalGrants()":"d9211be8","totalPayments()":"005b4487"},"id":0}